{
  "address": "0x025cB1f3F1b8D5e6234Ffa1c22EF021AE2b848D4",
  "abi": [
    {
      "inputs": [
        {
          "internalType": "string",
          "name": "name_",
          "type": "string"
        },
        {
          "internalType": "string",
          "name": "symbol_",
          "type": "string"
        },
        {
          "internalType": "uint8",
          "name": "decimals_",
          "type": "uint8"
        },
        {
          "internalType": "address",
          "name": "childChainManager",
          "type": "address"
        },
        {
          "internalType": "address",
          "name": "emergencyRecipient_",
          "type": "address"
        }
      ],
      "stateMutability": "nonpayable",
      "type": "constructor"
    },
    {
      "anonymous": false,
      "inputs": [
        {
          "indexed": true,
          "internalType": "address",
          "name": "owner",
          "type": "address"
        },
        {
          "indexed": true,
          "internalType": "address",
          "name": "spender",
          "type": "address"
        },
        {
          "indexed": false,
          "internalType": "uint256",
          "name": "value",
          "type": "uint256"
        }
      ],
      "name": "Approval",
      "type": "event"
    },
    {
      "anonymous": false,
      "inputs": [
        {
          "indexed": false,
          "internalType": "address",
          "name": "userAddress",
          "type": "address"
        },
        {
          "indexed": false,
          "internalType": "address payable",
          "name": "relayerAddress",
          "type": "address"
        },
        {
          "indexed": false,
          "internalType": "bytes",
          "name": "functionSignature",
          "type": "bytes"
        }
      ],
      "name": "MetaTransactionExecuted",
      "type": "event"
    },
    {
      "anonymous": false,
      "inputs": [
        {
          "indexed": true,
          "internalType": "bytes32",
          "name": "role",
          "type": "bytes32"
        },
        {
          "indexed": true,
          "internalType": "bytes32",
          "name": "previousAdminRole",
          "type": "bytes32"
        },
        {
          "indexed": true,
          "internalType": "bytes32",
          "name": "newAdminRole",
          "type": "bytes32"
        }
      ],
      "name": "RoleAdminChanged",
      "type": "event"
    },
    {
      "anonymous": false,
      "inputs": [
        {
          "indexed": true,
          "internalType": "bytes32",
          "name": "role",
          "type": "bytes32"
        },
        {
          "indexed": true,
          "internalType": "address",
          "name": "account",
          "type": "address"
        },
        {
          "indexed": true,
          "internalType": "address",
          "name": "sender",
          "type": "address"
        }
      ],
      "name": "RoleGranted",
      "type": "event"
    },
    {
      "anonymous": false,
      "inputs": [
        {
          "indexed": true,
          "internalType": "bytes32",
          "name": "role",
          "type": "bytes32"
        },
        {
          "indexed": true,
          "internalType": "address",
          "name": "account",
          "type": "address"
        },
        {
          "indexed": true,
          "internalType": "address",
          "name": "sender",
          "type": "address"
        }
      ],
      "name": "RoleRevoked",
      "type": "event"
    },
    {
      "anonymous": false,
      "inputs": [
        {
          "indexed": true,
          "internalType": "address",
          "name": "from",
          "type": "address"
        },
        {
          "indexed": true,
          "internalType": "address",
          "name": "to",
          "type": "address"
        },
        {
          "indexed": false,
          "internalType": "uint256",
          "name": "value",
          "type": "uint256"
        }
      ],
      "name": "Transfer",
      "type": "event"
    },
    {
      "inputs": [],
      "name": "DEFAULT_ADMIN_ROLE",
      "outputs": [
        {
          "internalType": "bytes32",
          "name": "",
          "type": "bytes32"
        }
      ],
      "stateMutability": "view",
      "type": "function"
    },
    {
      "inputs": [],
      "name": "DEPOSITOR_ROLE",
      "outputs": [
        {
          "internalType": "bytes32",
          "name": "",
          "type": "bytes32"
        }
      ],
      "stateMutability": "view",
      "type": "function"
    },
    {
      "inputs": [],
      "name": "DOMAIN_SEPARATOR",
      "outputs": [
        {
          "internalType": "bytes32",
          "name": "",
          "type": "bytes32"
        }
      ],
      "stateMutability": "view",
      "type": "function"
    },
    {
      "inputs": [],
      "name": "ERC712_VERSION",
      "outputs": [
        {
          "internalType": "string",
          "name": "",
          "type": "string"
        }
      ],
      "stateMutability": "view",
      "type": "function"
    },
    {
      "inputs": [],
      "name": "PERMIT_TYPEHASH",
      "outputs": [
        {
          "internalType": "bytes32",
          "name": "",
          "type": "bytes32"
        }
      ],
      "stateMutability": "view",
      "type": "function"
    },
    {
      "inputs": [
        {
          "internalType": "address",
          "name": "owner",
          "type": "address"
        },
        {
          "internalType": "address",
          "name": "spender",
          "type": "address"
        }
      ],
      "name": "allowance",
      "outputs": [
        {
          "internalType": "uint256",
          "name": "",
          "type": "uint256"
        }
      ],
      "stateMutability": "view",
      "type": "function"
    },
    {
      "inputs": [
        {
          "internalType": "address",
          "name": "spender",
          "type": "address"
        },
        {
          "internalType": "uint256",
          "name": "amount",
          "type": "uint256"
        }
      ],
      "name": "approve",
      "outputs": [
        {
          "internalType": "bool",
          "name": "",
          "type": "bool"
        }
      ],
      "stateMutability": "nonpayable",
      "type": "function"
    },
    {
      "inputs": [
        {
          "internalType": "address",
          "name": "account",
          "type": "address"
        }
      ],
      "name": "balanceOf",
      "outputs": [
        {
          "internalType": "uint256",
          "name": "",
          "type": "uint256"
        }
      ],
      "stateMutability": "view",
      "type": "function"
    },
    {
      "inputs": [],
      "name": "decimals",
      "outputs": [
        {
          "internalType": "uint8",
          "name": "",
          "type": "uint8"
        }
      ],
      "stateMutability": "view",
      "type": "function"
    },
    {
      "inputs": [
        {
          "internalType": "address",
          "name": "spender",
          "type": "address"
        },
        {
          "internalType": "uint256",
          "name": "subtractedValue",
          "type": "uint256"
        }
      ],
      "name": "decreaseAllowance",
      "outputs": [
        {
          "internalType": "bool",
          "name": "",
          "type": "bool"
        }
      ],
      "stateMutability": "nonpayable",
      "type": "function"
    },
    {
      "inputs": [
        {
          "internalType": "address",
          "name": "user",
          "type": "address"
        },
        {
          "internalType": "bytes",
          "name": "depositData",
          "type": "bytes"
        }
      ],
      "name": "deposit",
      "outputs": [],
      "stateMutability": "nonpayable",
      "type": "function"
    },
    {
      "inputs": [
        {
          "internalType": "address",
          "name": "user",
          "type": "address"
        },
        {
          "internalType": "uint256",
          "name": "amount",
          "type": "uint256"
        }
      ],
      "name": "depositByAdmin",
      "outputs": [],
      "stateMutability": "nonpayable",
      "type": "function"
    },
    {
      "inputs": [],
      "name": "emergencyRecipient",
      "outputs": [
        {
          "internalType": "address",
          "name": "",
          "type": "address"
        }
      ],
      "stateMutability": "view",
      "type": "function"
    },
    {
      "inputs": [
        {
          "internalType": "contract IERC20",
          "name": "token",
          "type": "address"
        }
      ],
      "name": "emergencyWithdraw",
      "outputs": [],
      "stateMutability": "nonpayable",
      "type": "function"
    },
    {
      "inputs": [
        {
          "internalType": "address",
          "name": "userAddress",
          "type": "address"
        },
        {
          "internalType": "bytes",
          "name": "functionSignature",
          "type": "bytes"
        },
        {
          "internalType": "bytes32",
          "name": "sigR",
          "type": "bytes32"
        },
        {
          "internalType": "bytes32",
          "name": "sigS",
          "type": "bytes32"
        },
        {
          "internalType": "uint8",
          "name": "sigV",
          "type": "uint8"
        }
      ],
      "name": "executeMetaTransaction",
      "outputs": [
        {
          "internalType": "bytes",
          "name": "",
          "type": "bytes"
        }
      ],
      "stateMutability": "payable",
      "type": "function"
    },
    {
      "inputs": [],
      "name": "getChainId",
      "outputs": [
        {
          "internalType": "uint256",
          "name": "",
          "type": "uint256"
        }
      ],
      "stateMutability": "pure",
      "type": "function"
    },
    {
      "inputs": [],
      "name": "getDomainSeperator",
      "outputs": [
        {
          "internalType": "bytes32",
          "name": "",
          "type": "bytes32"
        }
      ],
      "stateMutability": "view",
      "type": "function"
    },
    {
      "inputs": [
        {
          "internalType": "address",
          "name": "user",
          "type": "address"
        }
      ],
      "name": "getNonce",
      "outputs": [
        {
          "internalType": "uint256",
          "name": "nonce",
          "type": "uint256"
        }
      ],
      "stateMutability": "view",
      "type": "function"
    },
    {
      "inputs": [
        {
          "internalType": "bytes32",
          "name": "role",
          "type": "bytes32"
        }
      ],
      "name": "getRoleAdmin",
      "outputs": [
        {
          "internalType": "bytes32",
          "name": "",
          "type": "bytes32"
        }
      ],
      "stateMutability": "view",
      "type": "function"
    },
    {
      "inputs": [
        {
          "internalType": "bytes32",
          "name": "role",
          "type": "bytes32"
        },
        {
          "internalType": "uint256",
          "name": "index",
          "type": "uint256"
        }
      ],
      "name": "getRoleMember",
      "outputs": [
        {
          "internalType": "address",
          "name": "",
          "type": "address"
        }
      ],
      "stateMutability": "view",
      "type": "function"
    },
    {
      "inputs": [
        {
          "internalType": "bytes32",
          "name": "role",
          "type": "bytes32"
        }
      ],
      "name": "getRoleMemberCount",
      "outputs": [
        {
          "internalType": "uint256",
          "name": "",
          "type": "uint256"
        }
      ],
      "stateMutability": "view",
      "type": "function"
    },
    {
      "inputs": [
        {
          "internalType": "bytes32",
          "name": "role",
          "type": "bytes32"
        },
        {
          "internalType": "address",
          "name": "account",
          "type": "address"
        }
      ],
      "name": "grantRole",
      "outputs": [],
      "stateMutability": "nonpayable",
      "type": "function"
    },
    {
      "inputs": [
        {
          "internalType": "bytes32",
          "name": "role",
          "type": "bytes32"
        },
        {
          "internalType": "address",
          "name": "account",
          "type": "address"
        }
      ],
      "name": "hasRole",
      "outputs": [
        {
          "internalType": "bool",
          "name": "",
          "type": "bool"
        }
      ],
      "stateMutability": "view",
      "type": "function"
    },
    {
      "inputs": [
        {
          "internalType": "address",
          "name": "spender",
          "type": "address"
        },
        {
          "internalType": "uint256",
          "name": "addedValue",
          "type": "uint256"
        }
      ],
      "name": "increaseAllowance",
      "outputs": [
        {
          "internalType": "bool",
          "name": "",
          "type": "bool"
        }
      ],
      "stateMutability": "nonpayable",
      "type": "function"
    },
    {
      "inputs": [],
      "name": "name",
      "outputs": [
        {
          "internalType": "string",
          "name": "",
          "type": "string"
        }
      ],
      "stateMutability": "view",
      "type": "function"
    },
    {
      "inputs": [
        {
          "internalType": "address",
          "name": "owner",
          "type": "address"
        },
        {
          "internalType": "address",
          "name": "spender",
          "type": "address"
        },
        {
          "internalType": "uint256",
          "name": "value",
          "type": "uint256"
        },
        {
          "internalType": "uint256",
          "name": "deadline",
          "type": "uint256"
        },
        {
          "internalType": "uint8",
          "name": "v",
          "type": "uint8"
        },
        {
          "internalType": "bytes32",
          "name": "r",
          "type": "bytes32"
        },
        {
          "internalType": "bytes32",
          "name": "s",
          "type": "bytes32"
        }
      ],
      "name": "permit",
      "outputs": [],
      "stateMutability": "nonpayable",
      "type": "function"
    },
    {
      "inputs": [
        {
          "internalType": "address",
          "name": "",
          "type": "address"
        }
      ],
      "name": "permitNonces",
      "outputs": [
        {
          "internalType": "uint256",
          "name": "",
          "type": "uint256"
        }
      ],
      "stateMutability": "view",
      "type": "function"
    },
    {
      "inputs": [
        {
          "internalType": "bytes32",
          "name": "role",
          "type": "bytes32"
        },
        {
          "internalType": "address",
          "name": "account",
          "type": "address"
        }
      ],
      "name": "renounceRole",
      "outputs": [],
      "stateMutability": "nonpayable",
      "type": "function"
    },
    {
      "inputs": [
        {
          "internalType": "bytes32",
          "name": "role",
          "type": "bytes32"
        },
        {
          "internalType": "address",
          "name": "account",
          "type": "address"
        }
      ],
      "name": "revokeRole",
      "outputs": [],
      "stateMutability": "nonpayable",
      "type": "function"
    },
    {
      "inputs": [],
      "name": "symbol",
      "outputs": [
        {
          "internalType": "string",
          "name": "",
          "type": "string"
        }
      ],
      "stateMutability": "view",
      "type": "function"
    },
    {
      "inputs": [],
      "name": "totalSupply",
      "outputs": [
        {
          "internalType": "uint256",
          "name": "",
          "type": "uint256"
        }
      ],
      "stateMutability": "view",
      "type": "function"
    },
    {
      "inputs": [
        {
          "internalType": "address",
          "name": "recipient",
          "type": "address"
        },
        {
          "internalType": "uint256",
          "name": "amount",
          "type": "uint256"
        }
      ],
      "name": "transfer",
      "outputs": [
        {
          "internalType": "bool",
          "name": "",
          "type": "bool"
        }
      ],
      "stateMutability": "nonpayable",
      "type": "function"
    },
    {
      "inputs": [
        {
          "internalType": "address",
          "name": "sender",
          "type": "address"
        },
        {
          "internalType": "address",
          "name": "recipient",
          "type": "address"
        },
        {
          "internalType": "uint256",
          "name": "amount",
          "type": "uint256"
        }
      ],
      "name": "transferFrom",
      "outputs": [
        {
          "internalType": "bool",
          "name": "",
          "type": "bool"
        }
      ],
      "stateMutability": "nonpayable",
      "type": "function"
    },
    {
      "inputs": [
        {
          "internalType": "uint256",
          "name": "amount",
          "type": "uint256"
        }
      ],
      "name": "withdraw",
      "outputs": [],
      "stateMutability": "nonpayable",
      "type": "function"
    }
  ],
  "transactionHash": "0x83fefa2bcb36260173bd59791bbb9c1288c123630fee263bee017b08edd812d3",
  "args": [
    "TestLONChildERC20",
    "TLCERC20",
    18,
    "0xb5505a6d998549090530911180f38aC5130101c6",
    "0x3B7D34d0E7e807A9D7aD74F094C5379aca61460D"
  ],
  "solcInputHash": "c5699c07210dbb73a03eb7f75b4ceb86",
  "bytecode": "0x60a06040526008805460ff191690553480156200001b57600080fd5b5060405162002f8938038062002f89833981810160405260a08110156200004157600080fd5b81019080805160405193929190846401000000008211156200006257600080fd5b9083019060208201858111156200007857600080fd5b82516401000000008111828201881017156200009357600080fd5b82525081516020918201929091019080838360005b83811015620000c2578181015183820152602001620000a8565b50505050905090810190601f168015620000f05780820380516001836020036101000a031916815260200191505b50604052602001805160405193929190846401000000008211156200011457600080fd5b9083019060208201858111156200012a57600080fd5b82516401000000008111828201881017156200014557600080fd5b82525081516020918201929091019080838360005b83811015620001745781810151838201526020016200015a565b50505050905090810190601f168015620001a25780820380516001836020036101000a031916815260200191505b506040908152602082810151918301516060909301518751929550929350869186918691869185918591620001dd91600391850190620007b5565b508051620001f3906004906020840190620007b5565b50506005805460ff191660121790555060408051808201909152600a81526904368696c6445524332360b41b602082015262000238906001600160e01b036200038816565b6200024c826001600160e01b036200042e16565b620002746000620002656001600160e01b036200044416565b6001600160e01b036200046116565b604080516d4445504f5349544f525f524f4c4560901b8152905190819003600e019020620002ac90826001600160e01b036200046116565b620002c0846001600160e01b036200047616565b5050600b80546001600160a01b0319166001600160a01b0385161790555050604051469080605262002f37823960405190819003605201902090506200030e6001600160e01b03620004e416565b805160209182012060408051808201825260018152603160f81b908401528051808401949094528381019190915260008051602062002f1783398151915260608401526080808401949094523060a0808501919091528151808503909101815260c090930190528151910120905250620008579350505050565b806040516020018082805190602001908083835b60208310620003bd5780518252601f1990920191602091820191016200039c565b51815160209384036101000a60001901801990921691161790527f3a20494e53554646494349454e545f5045524d495353494f4e530000000000009190930190815260408051808303600519018152601a909201905280516200042a9550600794509201919050620007b5565b5050565b6005805460ff191660ff92909216919091179055565b60006200045b6200057e60201b62001daa1760201c565b90505b90565b6200042a82826001600160e01b03620005dd16565b60085460ff1615620004c0576040805162461bcd60e51b815260206004820152600e60248201526d185b1c9958591e481a5b9a5d195960921b604482015290519081900360640190fd5b620004d4816001600160e01b036200066116565b506008805460ff19166001179055565b60038054604080516020601f6002600019610100600188161502019095169490940493840181900481028201810190925282815260609390929091830182828015620005745780601f10620005485761010080835404028352916020019162000574565b820191906000526020600020905b8154815290600101906020018083116200055657829003601f168201915b5050505050905090565b600033301415620005d85760606000368080601f0160208091040260200160405190810160405280939291908181526020018383808284376000920191909152505050503601516001600160a01b031691506200045e9050565b503390565b60008281526006602090815260409091206200060491839062001f2262000718821b17901c565b156200042a576200061d6001600160e01b036200044416565b6001600160a01b0316816001600160a01b0316837f2f8788117e7eff1d82e926ec794901d17c78024a50270940304540a733656f0d60405160405180910390a45050565b6040518060800160405280604f815260200162002ec8604f913980516020918201208251838301206040805180820190915260018152603160f81b9301929092529060008051602062002f1783398151915230620006c76001600160e01b036200074116565b604080516020808201979097528082019590955260608501939093526001600160a01b03909116608084015260a0808401919091528151808403909101815260c09092019052805191012060095550565b600062000738836001600160a01b0384166001600160e01b036200074516565b90505b92915050565b4690565b60006200075c83836001600160e01b036200079d16565b62000794575081546001818101845560008481526020808220909301849055845484825282860190935260409020919091556200073b565b5060006200073b565b60009081526001919091016020526040902054151590565b828054600181600116156101000203166002900490600052602060002090601f016020900481019282601f10620007f857805160ff191683800117855562000828565b8280016001018555821562000828579182015b82811115620008285782518255916020019190600101906200080b565b50620008369291506200083a565b5090565b6200045e91905b8082111562000836576000815560010162000841565b6080516126516200087760003980610f91528061148052506126516000f3fe6080604052600436106101f95760003560e01c806336568abe1161010d578063a3b0b5a3116100a0578063ca15c8731161006f578063ca15c873146107e8578063cf2c52cb14610812578063d505accf1461089f578063d547741f146108fd578063dd62ed3e14610936576101f9565b8063a3b0b5a31461074c578063a457c2d714610761578063a9059cbb1461079a578063be9ee11f146107d3576101f9565b80639010d07c116100dc5780639010d07c1461069d57806391d14854146106e957806395d89b4114610722578063a217fddf14610737576101f9565b806336568abe146105c557806339509351146105fe5780636ff1c9bc1461063757806370a082311461066a576101f9565b8063248a9ca3116101905780632f2ff15d1161015f5780632f2ff15d1461052257806330adf81f1461055b578063313ce567146105705780633408e4701461059b5780633644e515146105b0576101f9565b8063248a9ca3146104605780632d0335ab1461048a5780632d9c7dcf146104bd5780632e1a7d4d146104f8576101f9565b806318160ddd116101cc57806318160ddd146103ae578063191d0ffc146103d557806320379ee51461040857806323b872dd1461041d576101f9565b806306fdde03146101fe578063095ea7b3146102885780630c53c51c146102d55780630f7e597014610399575b600080fd5b34801561020a57600080fd5b50610213610971565b6040805160208082528351818301528351919283929083019185019080838360005b8381101561024d578181015183820152602001610235565b50505050905090810190601f16801561027a5780820380516001836020036101000a031916815260200191505b509250505060405180910390f35b34801561029457600080fd5b506102c1600480360360408110156102ab57600080fd5b506001600160a01b038135169060200135610a07565b604080519115158252519081900360200190f35b610213600480360360a08110156102eb57600080fd5b6001600160a01b03823516919081019060408101602082013564010000000081111561031657600080fd5b82018360208201111561032857600080fd5b8035906020019184600183028401116401000000008311171561034a57600080fd5b91908080601f016020809104026020016040519081016040528093929190818152602001838380828437600092019190915250929550508235935050506020810135906040013560ff16610a25565b3480156103a557600080fd5b50610213610d28565b3480156103ba57600080fd5b506103c3610d45565b60408051918252519081900360200190f35b3480156103e157600080fd5b506103c3600480360360208110156103f857600080fd5b50356001600160a01b0316610d4b565b34801561041457600080fd5b506103c3610d5d565b34801561042957600080fd5b506102c16004803603606081101561044057600080fd5b506001600160a01b03813581169160208101359091169060400135610d63565b34801561046c57600080fd5b506103c36004803603602081101561048357600080fd5b5035610df0565b34801561049657600080fd5b506103c3600480360360208110156104ad57600080fd5b50356001600160a01b0316610e05565b3480156104c957600080fd5b506104f6600480360360408110156104e057600080fd5b506001600160a01b038135169060200135610e20565b005b34801561050457600080fd5b506104f66004803603602081101561051b57600080fd5b5035610ee3565b34801561052e57600080fd5b506104f66004803603604081101561054557600080fd5b50803590602001356001600160a01b0316610ef7565b34801561056757600080fd5b506103c3610f5e565b34801561057c57600080fd5b50610585610f82565b6040805160ff9092168252519081900360200190f35b3480156105a757600080fd5b506103c3610f8b565b3480156105bc57600080fd5b506103c3610f8f565b3480156105d157600080fd5b506104f6600480360360408110156105e857600080fd5b50803590602001356001600160a01b0316610fb3565b34801561060a57600080fd5b506102c16004803603604081101561062157600080fd5b506001600160a01b038135169060200135611014565b34801561064357600080fd5b506104f66004803603602081101561065a57600080fd5b50356001600160a01b0316611068565b34801561067657600080fd5b506103c36004803603602081101561068d57600080fd5b50356001600160a01b03166110fe565b3480156106a957600080fd5b506106cd600480360360408110156106c057600080fd5b5080359060200135611119565b604080516001600160a01b039092168252519081900360200190f35b3480156106f557600080fd5b506102c16004803603604081101561070c57600080fd5b50803590602001356001600160a01b031661113e565b34801561072e57600080fd5b5061021361115c565b34801561074357600080fd5b506103c36111bd565b34801561075857600080fd5b506103c36111c2565b34801561076d57600080fd5b506102c16004803603604081101561078457600080fd5b506001600160a01b0381351690602001356111e8565b3480156107a657600080fd5b506102c1600480360360408110156107bd57600080fd5b506001600160a01b038135169060200135611256565b3480156107df57600080fd5b506106cd61126a565b3480156107f457600080fd5b506103c36004803603602081101561080b57600080fd5b5035611279565b34801561081e57600080fd5b506104f66004803603604081101561083557600080fd5b6001600160a01b03823516919081019060408101602082013564010000000081111561086057600080fd5b82018360208201111561087257600080fd5b8035906020019184600183028401116401000000008311171561089457600080fd5b509092509050611290565b3480156108ab57600080fd5b506104f6600480360360e08110156108c257600080fd5b506001600160a01b03813581169160208101359091169060408101359060608101359060ff6080820135169060a08101359060c0013561134d565b34801561090957600080fd5b506104f66004803603604081101561092057600080fd5b50803590602001356001600160a01b0316611596565b34801561094257600080fd5b506103c36004803603604081101561095957600080fd5b506001600160a01b03813581169160200135166115ef565b60038054604080516020601f60026000196101006001881615020190951694909404938401819004810282018101909252828152606093909290918301828280156109fd5780601f106109d2576101008083540402835291602001916109fd565b820191906000526020600020905b8154815290600101906020018083116109e057829003601f168201915b5050505050905090565b6000610a1b610a1461161a565b8484611629565b5060015b92915050565b6060610a2f61234a565b50604080516060810182526001600160a01b0388166000818152600a602090815290849020548352820152908101869052610a6d8782878787611715565b610aa85760405162461bcd60e51b81526004018080602001828103825260218152602001806125136021913960400191505060405180910390fd5b6001600160a01b0387166000908152600a6020526040902054610ad290600163ffffffff6117f216565b6001600160a01b0388166000818152600a602090815260408083209490945583519283523383820181905260609484018581528b51958501959095528a517f5845892132946850460bff5a0083f71031bc5bf9aadcd40f1de79423eac9b10b958d9592948d94919260808501928601918190849084905b83811015610b61578181015183820152602001610b49565b50505050905090810190601f168015610b8e5780820380516001836020036101000a031916815260200191505b5094505050505060405180910390a160006060306001600160a01b0316888a6040516020018083805190602001908083835b60208310610bdf5780518252601f199092019160209182019101610bc0565b6001836020036101000a038019825116818451168082178552505050505050905001826001600160a01b03166001600160a01b031660601b8152601401925050506040516020818303038152906040526040518082805190602001908083835b60208310610c5e5780518252601f199092019160209182019101610c3f565b6001836020036101000a0380198251168184511680821785525050505050509050019150506000604051808303816000865af19150503d8060008114610cc0576040519150601f19603f3d011682016040523d82523d6000602084013e610cc5565b606091505b509150915081610d1c576040805162461bcd60e51b815260206004820152601c60248201527f46756e6374696f6e2063616c6c206e6f74207375636365737366756c00000000604482015290519081900360640190fd5b98975050505050505050565b604051806040016040528060018152602001603160f81b81525081565b60025490565b600c6020526000908152604090205481565b60095490565b6000610d7084848461184c565b610de684610d7c61161a565b610de1856040518060600160405280602881526020016124eb602891396001600160a01b038a16600090815260016020526040812090610dba61161a565b6001600160a01b03168152602081019190915260400160002054919063ffffffff6119b316565b611629565b5060019392505050565b60009081526006602052604090206002015490565b6001600160a01b03166000908152600a602052604090205490565b6000610e3381610e2e61161a565b61113e565b600790610ed35760405162461bcd60e51b8152602060048201908152825460026000196101006001841615020190911604602483018190529091829160449091019084908015610ec45780601f10610e9957610100808354040283529160200191610ec4565b820191906000526020600020905b815481529060010190602001808311610ea757829003601f168201915b50509250505060405180910390fd5b50610ede8383611a4a565b505050565b610ef4610eee61161a565b82611b46565b50565b600082815260066020526040902060020154610f1590610e2e61161a565b610f505760405162461bcd60e51b815260040180806020018281038252602f8152602001806123ba602f913960400191505060405180910390fd5b610f5a8282611c4e565b5050565b7f6e71edae12b1b97f4d1f60370fef10105fa2faae0126114a169c64845d6126c981565b60055460ff1690565b4690565b7f000000000000000000000000000000000000000000000000000000000000000081565b610fbb61161a565b6001600160a01b0316816001600160a01b03161461100a5760405162461bcd60e51b815260040180806020018281038252602f8152602001806125ed602f913960400191505060405180910390fd5b610f5a8282611cbd565b6000610a1b61102161161a565b84610de1856001600061103261161a565b6001600160a01b03908116825260208083019390935260409182016000908120918c16815292529020549063ffffffff6117f216565b600b54604080516370a0823160e01b81523060048201529051610ef4926001600160a01b0390811692908516916370a0823191602480820192602092909190829003018186803b1580156110bb57600080fd5b505afa1580156110cf573d6000803e3d6000fd5b505050506040513d60208110156110e557600080fd5b50516001600160a01b038416919063ffffffff611d2c16565b6001600160a01b031660009081526020819052604090205490565b6000828152600660205260408120611137908363ffffffff611d7e16565b9392505050565b6000828152600660205260408120611137908363ffffffff611d8a16565b60048054604080516020601f60026000196101006001881615020190951694909404938401819004810282018101909252828152606093909290918301828280156109fd5780601f106109d2576101008083540402835291602001916109fd565b600081565b604080516d4445504f5349544f525f524f4c4560901b8152905190819003600e01902081565b6000610a1b6111f561161a565b84610de1856040518060600160405280602581526020016125c8602591396001600061121f61161a565b6001600160a01b03908116825260208083019390935260409182016000908120918d1681529252902054919063ffffffff6119b316565b6000610a1b61126361161a565b848461184c565b600b546001600160a01b031681565b6000818152600660205260408120610a1f90611d9f565b604080516d4445504f5349544f525f524f4c4560901b8152905190819003600e0190206112bf81610e2e61161a565b6007906113255760405162461bcd60e51b8152602060048201908152825460026000196101006001841615020190911604602483018190529091829160449091019084908015610ec45780601f10610e9957610100808354040283529160200191610ec4565b5060008383602081101561133857600080fd5b503590506113468582611a4a565b5050505050565b6001600160a01b038716611397576040805162461bcd60e51b815260206004820152600c60248201526b7a65726f206164647265737360a01b604482015290519081900360640190fd5b83421115806113a4575083155b6113e9576040805162461bcd60e51b81526020600482015260116024820152701c195c9b5a5d081a5cc8195e1c1a5c9959607a1b604482015290519081900360640190fd5b6001600160a01b038088166000818152600c602090815260408083208054600180820190925582517f6e71edae12b1b97f4d1f60370fef10105fa2faae0126114a169c64845d6126c98186015280840196909652958c166060860152608085018b905260a085019590955260c08085018a90528151808603909101815260e08501825280519083012061190160f01b6101008601527f000000000000000000000000000000000000000000000000000000000000000061010286015261012280860191909152815180860390910181526101428501808352815191840191909120939052610162840180825283905260ff88166101828501526101a284018790526101c28401869052519193926101e280820193601f1981019281900390910190855afa15801561151e573d6000803e3d6000fd5b505050602060405103516001600160a01b0316886001600160a01b031614611581576040805162461bcd60e51b8152602060048201526011602482015270696e76616c6964207369676e617475726560781b604482015290519081900360640190fd5b61158c888888611629565b5050505050505050565b6000828152600660205260409020600201546115b490610e2e61161a565b61100a5760405162461bcd60e51b81526004018080602001828103825260308152602001806124966030913960400191505060405180910390fd5b6001600160a01b03918216600090815260016020908152604080832093909416825291909152205490565b6000611624611daa565b905090565b6001600160a01b03831661166e5760405162461bcd60e51b815260040180806020018281038252602481526020018061257a6024913960400191505060405180910390fd5b6001600160a01b0382166116b35760405162461bcd60e51b815260040180806020018281038252602281526020018061244e6022913960400191505060405180910390fd5b6001600160a01b03808416600081815260016020908152604080832094871680845294825291829020859055815185815291517f8c5be1e5ebec7d5bd14f71427d1e84f3dd0314c0f7b2291e5b200ac8c7c3b9259281900390910190a3505050565b60006001600160a01b03861661175c5760405162461bcd60e51b81526004018080602001828103825260258152602001806124c66025913960400191505060405180910390fd5b600161176f61176a87611e08565b611e94565b83868660405160008152602001604052604051808581526020018460ff1660ff1681526020018381526020018281526020019450505050506020604051602081039080840390855afa1580156117c9573d6000803e3d6000fd5b505050602060405103516001600160a01b0316866001600160a01b031614905095945050505050565b600082820183811015611137576040805162461bcd60e51b815260206004820152601b60248201527f536166654d6174683a206164646974696f6e206f766572666c6f770000000000604482015290519081900360640190fd5b6001600160a01b0383166118915760405162461bcd60e51b81526004018080602001828103825260258152602001806125556025913960400191505060405180910390fd5b6001600160a01b0382166118d65760405162461bcd60e51b81526004018080602001828103825260238152602001806123976023913960400191505060405180910390fd5b6118e1838383610ede565b61192481604051806060016040528060268152602001612470602691396001600160a01b038616600090815260208190526040902054919063ffffffff6119b316565b6001600160a01b038085166000908152602081905260408082209390935590841681522054611959908263ffffffff6117f216565b6001600160a01b038084166000818152602081815260409182902094909455805185815290519193928716927fddf252ad1be2c89b69c2b068fc378daa952ba7f163c4a11628f55a4df523b3ef92918290030190a3505050565b60008184841115611a425760405162461bcd60e51b81526004018080602001828103825283818151815260200191508051906020019080838360005b83811015611a075781810151838201526020016119ef565b50505050905090810190601f168015611a345780820380516001836020036101000a031916815260200191505b509250505060405180910390fd5b505050900390565b6001600160a01b038216611aa5576040805162461bcd60e51b815260206004820152601f60248201527f45524332303a206d696e7420746f20746865207a65726f206164647265737300604482015290519081900360640190fd5b611ab160008383610ede565b600254611ac4908263ffffffff6117f216565b6002556001600160a01b038216600090815260208190526040902054611af0908263ffffffff6117f216565b6001600160a01b0383166000818152602081815260408083209490945583518581529351929391927fddf252ad1be2c89b69c2b068fc378daa952ba7f163c4a11628f55a4df523b3ef9281900390910190a35050565b6001600160a01b038216611b8b5760405162461bcd60e51b81526004018080602001828103825260218152602001806125346021913960400191505060405180910390fd5b611b9782600083610ede565b611bda816040518060600160405280602281526020016123e9602291396001600160a01b038516600090815260208190526040902054919063ffffffff6119b316565b6001600160a01b038316600090815260208190526040902055600254611c06908263ffffffff611ee016565b6002556040805182815290516000916001600160a01b038516917fddf252ad1be2c89b69c2b068fc378daa952ba7f163c4a11628f55a4df523b3ef9181900360200190a35050565b6000828152600660205260409020611c6c908263ffffffff611f2216565b15610f5a57611c7961161a565b6001600160a01b0316816001600160a01b0316837f2f8788117e7eff1d82e926ec794901d17c78024a50270940304540a733656f0d60405160405180910390a45050565b6000828152600660205260409020611cdb908263ffffffff611f3716565b15610f5a57611ce861161a565b6001600160a01b0316816001600160a01b0316837ff6391f5c32d9c69d2a47ea670b442974b53935d1edc7fd64eb21e047a839171b60405160405180910390a45050565b604080516001600160a01b038416602482015260448082018490528251808303909101815260649091019091526020810180516001600160e01b031663a9059cbb60e01b179052610ede908490611f4c565b60006111378383611ffd565b6000611137836001600160a01b038416612061565b6000610a1f82612079565b600033301415611e025760606000368080601f0160208091040260200160405190810160405280939291908181526020018383808284376000920191909152505050503601516001600160a01b03169150611e059050565b50335b90565b600060405180608001604052806043815260200161240b60439139805190602001208260000151836020015184604001518051906020012060405160200180858152602001848152602001836001600160a01b03166001600160a01b03168152602001828152602001945050505050604051602081830303815290604052805190602001209050919050565b6000611e9e610d5d565b82604051602001808061190160f01b81525060020183815260200182815260200192505050604051602081830303815290604052805190602001209050919050565b600061113783836040518060400160405280601e81526020017f536166654d6174683a207375627472616374696f6e206f766572666c6f7700008152506119b3565b6000611137836001600160a01b03841661207d565b6000611137836001600160a01b0384166120c7565b6060611fa1826040518060400160405280602081526020017f5361666545524332303a206c6f772d6c6576656c2063616c6c206661696c6564815250856001600160a01b031661218d9092919063ffffffff16565b805190915015610ede57808060200190516020811015611fc057600080fd5b5051610ede5760405162461bcd60e51b815260040180806020018281038252602a81526020018061259e602a913960400191505060405180910390fd5b8154600090821061203f5760405162461bcd60e51b81526004018080602001828103825260228152602001806123756022913960400191505060405180910390fd5b82600001828154811061204e57fe5b9060005260206000200154905092915050565b60009081526001919091016020526040902054151590565b5490565b60006120898383612061565b6120bf57508154600181810184556000848152602080822090930184905584548482528286019093526040902091909155610a1f565b506000610a1f565b6000818152600183016020526040812054801561218357835460001980830191908101906000908790839081106120fa57fe5b906000526020600020015490508087600001848154811061211757fe5b60009182526020808320909101929092558281526001898101909252604090209084019055865487908061214757fe5b60019003818190600052602060002001600090559055866001016000878152602001908152602001600020600090556001945050505050610a1f565b6000915050610a1f565b606061219c84846000856121a4565b949350505050565b60606121af85612311565b612200576040805162461bcd60e51b815260206004820152601d60248201527f416464726573733a2063616c6c20746f206e6f6e2d636f6e7472616374000000604482015290519081900360640190fd5b60006060866001600160a01b031685876040518082805190602001908083835b6020831061223f5780518252601f199092019160209182019101612220565b6001836020036101000a03801982511681845116808217855250505050505090500191505060006040518083038185875af1925050503d80600081146122a1576040519150601f19603f3d011682016040523d82523d6000602084013e6122a6565b606091505b509150915081156122ba57915061219c9050565b8051156122ca5780518082602001fd5b60405162461bcd60e51b8152602060048201818152865160248401528651879391928392604401919085019080838360008315611a075781810151838201526020016119ef565b6000813f7fc5d2460186f7233c927e7db2dcc703c0e500b653ca82273b7bfad8045d85a47081811480159061219c575050151592915050565b60405180606001604052806000815260200160006001600160a01b0316815260200160608152509056fe456e756d657261626c655365743a20696e646578206f7574206f6620626f756e647345524332303a207472616e7366657220746f20746865207a65726f2061646472657373416363657373436f6e74726f6c3a2073656e646572206d75737420626520616e2061646d696e20746f206772616e7445524332303a206275726e20616d6f756e7420657863656564732062616c616e63654d6574615472616e73616374696f6e2875696e74323536206e6f6e63652c616464726573732066726f6d2c62797465732066756e6374696f6e5369676e61747572652945524332303a20617070726f766520746f20746865207a65726f206164647265737345524332303a207472616e7366657220616d6f756e7420657863656564732062616c616e6365416363657373436f6e74726f6c3a2073656e646572206d75737420626520616e2061646d696e20746f207265766f6b654e61746976654d6574615472616e73616374696f6e3a20494e56414c49445f5349474e455245524332303a207472616e7366657220616d6f756e74206578636565647320616c6c6f77616e63655369676e657220616e64207369676e617475726520646f206e6f74206d6174636845524332303a206275726e2066726f6d20746865207a65726f206164647265737345524332303a207472616e736665722066726f6d20746865207a65726f206164647265737345524332303a20617070726f76652066726f6d20746865207a65726f20616464726573735361666545524332303a204552433230206f7065726174696f6e20646964206e6f74207375636365656445524332303a2064656372656173656420616c6c6f77616e63652062656c6f77207a65726f416363657373436f6e74726f6c3a2063616e206f6e6c792072656e6f756e636520726f6c657320666f722073656c66a26469706673582212208272b9ecf4eb82fd24adbcbad35e21683a271a825221f03c9a209ca454b77d1264736f6c63430006060033454950373132446f6d61696e28737472696e67206e616d652c737472696e672076657273696f6e2c6164647265737320766572696679696e67436f6e74726163742c627974657333322073616c7429c89efdaa54c0f20c7adf612882df0950f5a951637e0307cdcb4c672f298b8bc6454950373132446f6d61696e28737472696e67206e616d652c737472696e672076657273696f6e2c75696e7432353620636861696e49642c6164647265737320766572696679696e67436f6e747261637429",
  "devdoc": {
    "methods": {
      "allowance(address,address)": {
        "details": "See {IERC20-allowance}."
      },
      "approve(address,uint256)": {
        "details": "See {IERC20-approve}.     * Requirements:     * - `spender` cannot be the zero address."
      },
      "balanceOf(address)": {
        "details": "See {IERC20-balanceOf}."
      },
      "decimals()": {
        "details": "Returns the number of decimals used to get its user representation. For example, if `decimals` equals `2`, a balance of `505` tokens should be displayed to a user as `5,05` (`505 / 10 ** 2`).     * Tokens usually opt for a value of 18, imitating the relationship between Ether and Wei. This is the value {ERC20} uses, unless {_setupDecimals} is called.     * NOTE: This information is only used for _display_ purposes: it in no way affects any of the arithmetic of the contract, including {IERC20-balanceOf} and {IERC20-transfer}."
      },
      "decreaseAllowance(address,uint256)": {
        "details": "Atomically decreases the allowance granted to `spender` by the caller.     * This is an alternative to {approve} that can be used as a mitigation for problems described in {IERC20-approve}.     * Emits an {Approval} event indicating the updated allowance.     * Requirements:     * - `spender` cannot be the zero address. - `spender` must have allowance for the caller of at least `subtractedValue`."
      },
      "deposit(address,bytes)": {
        "details": "Should be callable only by ChildChainManager Should handle deposit by minting the required amount for user Make sure minting is done only by this function",
        "params": {
          "depositData": "abi encoded amount",
          "user": "user address for whom deposit is being done"
        }
      },
      "getRoleAdmin(bytes32)": {
        "details": "Returns the admin role that controls `role`. See {grantRole} and {revokeRole}.     * To change a role's admin, use {_setRoleAdmin}."
      },
      "getRoleMember(bytes32,uint256)": {
        "details": "Returns one of the accounts that have `role`. `index` must be a value between 0 and {getRoleMemberCount}, non-inclusive.     * Role bearers are not sorted in any particular way, and their ordering may change at any point.     * WARNING: When using {getRoleMember} and {getRoleMemberCount}, make sure you perform all queries on the same block. See the following https://forum.openzeppelin.com/t/iterating-over-elements-on-enumerableset-in-openzeppelin-contracts/2296[forum post] for more information."
      },
      "getRoleMemberCount(bytes32)": {
        "details": "Returns the number of accounts that have `role`. Can be used together with {getRoleMember} to enumerate all bearers of a role."
      },
      "grantRole(bytes32,address)": {
        "details": "Grants `role` to `account`.     * If `account` had not been already granted `role`, emits a {RoleGranted} event.     * Requirements:     * - the caller must have ``role``'s admin role."
      },
      "hasRole(bytes32,address)": {
        "details": "Returns `true` if `account` has been granted `role`."
      },
      "increaseAllowance(address,uint256)": {
        "details": "Atomically increases the allowance granted to `spender` by the caller.     * This is an alternative to {approve} that can be used as a mitigation for problems described in {IERC20-approve}.     * Emits an {Approval} event indicating the updated allowance.     * Requirements:     * - `spender` cannot be the zero address."
      },
      "name()": {
        "details": "Returns the name of the token."
      },
      "renounceRole(bytes32,address)": {
        "details": "Revokes `role` from the calling account.     * Roles are often managed via {grantRole} and {revokeRole}: this function's purpose is to provide a mechanism for accounts to lose their privileges if they are compromised (such as when a trusted device is misplaced).     * If the calling account had been granted `role`, emits a {RoleRevoked} event.     * Requirements:     * - the caller must be `account`."
      },
      "revokeRole(bytes32,address)": {
        "details": "Revokes `role` from `account`.     * If `account` had been granted `role`, emits a {RoleRevoked} event.     * Requirements:     * - the caller must have ``role``'s admin role."
      },
      "symbol()": {
        "details": "Returns the symbol of the token, usually a shorter version of the name."
      },
      "totalSupply()": {
        "details": "See {IERC20-totalSupply}."
      },
      "transfer(address,uint256)": {
        "details": "See {IERC20-transfer}.     * Requirements:     * - `recipient` cannot be the zero address. - the caller must have a balance of at least `amount`."
      },
      "transferFrom(address,address,uint256)": {
        "details": "See {IERC20-transferFrom}.     * Emits an {Approval} event indicating the updated allowance. This is not required by the EIP. See the note at the beginning of {ERC20};     * Requirements: - `sender` and `recipient` cannot be the zero address. - `sender` must have a balance of at least `amount`. - the caller must have allowance for ``sender``'s tokens of at least `amount`."
      },
      "withdraw(uint256)": {
        "details": "Should burn user's tokens. This transaction will be verified when exiting on root chain",
        "params": {
          "amount": "amount of tokens to withdraw"
        }
      }
    }
  },
  "userdoc": {
    "methods": {
      "deposit(address,bytes)": {
        "notice": "called when token is deposited on root chain"
      },
      "withdraw(uint256)": {
        "notice": "called when user wants to withdraw tokens back to root chain"
      }
    }
  },
  "storageLayout": {
    "storage": [
      {
        "astId": 513,
        "contract": "contracts/LONChildERC20.sol:LONChildERC20",
        "label": "_balances",
        "offset": 0,
        "slot": "0",
        "type": "t_mapping(t_address,t_uint256)"
      },
      {
        "astId": 519,
        "contract": "contracts/LONChildERC20.sol:LONChildERC20",
        "label": "_allowances",
        "offset": 0,
        "slot": "1",
        "type": "t_mapping(t_address,t_mapping(t_address,t_uint256))"
      },
      {
        "astId": 521,
        "contract": "contracts/LONChildERC20.sol:LONChildERC20",
        "label": "_totalSupply",
        "offset": 0,
        "slot": "2",
        "type": "t_uint256"
      },
      {
        "astId": 523,
        "contract": "contracts/LONChildERC20.sol:LONChildERC20",
        "label": "_name",
        "offset": 0,
        "slot": "3",
        "type": "t_string_storage"
      },
      {
        "astId": 525,
        "contract": "contracts/LONChildERC20.sol:LONChildERC20",
        "label": "_symbol",
        "offset": 0,
        "slot": "4",
        "type": "t_string_storage"
      },
      {
        "astId": 527,
        "contract": "contracts/LONChildERC20.sol:LONChildERC20",
        "label": "_decimals",
        "offset": 0,
        "slot": "5",
        "type": "t_uint8"
      },
      {
        "astId": 1412,
        "contract": "contracts/LONChildERC20.sol:LONChildERC20",
        "label": "_roles",
        "offset": 0,
        "slot": "6",
        "type": "t_mapping(t_bytes32,t_struct(RoleData)1408_storage)"
      },
      {
        "astId": 1677,
        "contract": "contracts/LONChildERC20.sol:LONChildERC20",
        "label": "_revertMsg",
        "offset": 0,
        "slot": "7",
        "type": "t_string_storage"
      },
      {
        "astId": 1723,
        "contract": "contracts/LONChildERC20.sol:LONChildERC20",
        "label": "inited",
        "offset": 0,
        "slot": "8",
        "type": "t_bool"
      },
      {
        "astId": 1763,
        "contract": "contracts/LONChildERC20.sol:LONChildERC20",
        "label": "domainSeperator",
        "offset": 0,
        "slot": "9",
        "type": "t_bytes32"
      },
      {
        "astId": 1877,
        "contract": "contracts/LONChildERC20.sol:LONChildERC20",
        "label": "nonces",
        "offset": 0,
        "slot": "10",
        "type": "t_mapping(t_address,t_uint256)"
      },
      {
        "astId": 2404,
        "contract": "contracts/LONChildERC20.sol:LONChildERC20",
        "label": "emergencyRecipient",
        "offset": 0,
        "slot": "11",
        "type": "t_address"
      },
      {
        "astId": 2408,
        "contract": "contracts/LONChildERC20.sol:LONChildERC20",
        "label": "permitNonces",
        "offset": 0,
        "slot": "12",
        "type": "t_mapping(t_address,t_uint256)"
      }
    ],
    "types": {
      "t_address": {
        "encoding": "inplace",
        "label": "address",
        "numberOfBytes": "20"
      },
      "t_array(t_bytes32)dyn_storage": {
        "base": "t_bytes32",
        "encoding": "dynamic_array",
        "label": "bytes32[]",
        "numberOfBytes": "32"
      },
      "t_bool": {
        "encoding": "inplace",
        "label": "bool",
        "numberOfBytes": "1"
      },
      "t_bytes32": {
        "encoding": "inplace",
        "label": "bytes32",
        "numberOfBytes": "32"
      },
      "t_mapping(t_address,t_mapping(t_address,t_uint256))": {
        "encoding": "mapping",
        "key": "t_address",
        "label": "mapping(address => mapping(address => uint256))",
        "numberOfBytes": "32",
        "value": "t_mapping(t_address,t_uint256)"
      },
      "t_mapping(t_address,t_uint256)": {
        "encoding": "mapping",
        "key": "t_address",
        "label": "mapping(address => uint256)",
        "numberOfBytes": "32",
        "value": "t_uint256"
      },
      "t_mapping(t_bytes32,t_struct(RoleData)1408_storage)": {
        "encoding": "mapping",
        "key": "t_bytes32",
        "label": "mapping(bytes32 => struct AccessControl.RoleData)",
        "numberOfBytes": "32",
        "value": "t_struct(RoleData)1408_storage"
      },
      "t_mapping(t_bytes32,t_uint256)": {
        "encoding": "mapping",
        "key": "t_bytes32",
        "label": "mapping(bytes32 => uint256)",
        "numberOfBytes": "32",
        "value": "t_uint256"
      },
      "t_string_storage": {
        "encoding": "bytes",
        "label": "string",
        "numberOfBytes": "32"
      },
      "t_struct(AddressSet)1189_storage": {
        "encoding": "inplace",
        "label": "struct EnumerableSet.AddressSet",
        "members": [
          {
            "astId": 1188,
            "contract": "contracts/LONChildERC20.sol:LONChildERC20",
            "label": "_inner",
            "offset": 0,
            "slot": "0",
            "type": "t_struct(Set)1009_storage"
          }
        ],
        "numberOfBytes": "64"
      },
      "t_struct(RoleData)1408_storage": {
        "encoding": "inplace",
        "label": "struct AccessControl.RoleData",
        "members": [
          {
            "astId": 1405,
            "contract": "contracts/LONChildERC20.sol:LONChildERC20",
            "label": "members",
            "offset": 0,
            "slot": "0",
            "type": "t_struct(AddressSet)1189_storage"
          },
          {
            "astId": 1407,
            "contract": "contracts/LONChildERC20.sol:LONChildERC20",
            "label": "adminRole",
            "offset": 0,
            "slot": "2",
            "type": "t_bytes32"
          }
        ],
        "numberOfBytes": "96"
      },
      "t_struct(Set)1009_storage": {
        "encoding": "inplace",
        "label": "struct EnumerableSet.Set",
        "members": [
          {
            "astId": 1004,
            "contract": "contracts/LONChildERC20.sol:LONChildERC20",
            "label": "_values",
            "offset": 0,
            "slot": "0",
            "type": "t_array(t_bytes32)dyn_storage"
          },
          {
            "astId": 1008,
            "contract": "contracts/LONChildERC20.sol:LONChildERC20",
            "label": "_indexes",
            "offset": 0,
            "slot": "1",
            "type": "t_mapping(t_bytes32,t_uint256)"
          }
        ],
        "numberOfBytes": "64"
      },
      "t_uint256": {
        "encoding": "inplace",
        "label": "uint256",
        "numberOfBytes": "32"
      },
      "t_uint8": {
        "encoding": "inplace",
        "label": "uint8",
        "numberOfBytes": "1"
      }
    }
  }
}